{
  "_format": "hh-sol-artifact-1",
  "contractName": "CandleAuction",
  "sourceName": "contracts/candleAuction.sol",
  "abi": [
    {
      "inputs": [
        {
          "internalType": "uint256",
          "name": "_biddingTime",
          "type": "uint256"
        },
        {
          "internalType": "uint256",
          "name": "_candleTime",
          "type": "uint256"
        },
        {
          "internalType": "address payable",
          "name": "_beneficiary",
          "type": "address"
        }
      ],
      "stateMutability": "nonpayable",
      "type": "constructor"
    },
    {
      "anonymous": false,
      "inputs": [
        {
          "indexed": true,
          "internalType": "address",
          "name": "winner",
          "type": "address"
        },
        {
          "indexed": false,
          "internalType": "uint256",
          "name": "amount",
          "type": "uint256"
        }
      ],
      "name": "AuctionEnded",
      "type": "event"
    },
    {
      "anonymous": false,
      "inputs": [
        {
          "indexed": true,
          "internalType": "address",
          "name": "bidder",
          "type": "address"
        },
        {
          "indexed": false,
          "internalType": "uint256",
          "name": "amount",
          "type": "uint256"
        }
      ],
      "name": "HighestBidIncreased",
      "type": "event"
    },
    {
      "inputs": [],
      "name": "auctionEnd",
      "outputs": [],
      "stateMutability": "nonpayable",
      "type": "function"
    },
    {
      "inputs": [],
      "name": "auctionEndTime",
      "outputs": [
        {
          "internalType": "uint256",
          "name": "",
          "type": "uint256"
        }
      ],
      "stateMutability": "view",
      "type": "function"
    },
    {
      "inputs": [],
      "name": "beneficiary",
      "outputs": [
        {
          "internalType": "address payable",
          "name": "",
          "type": "address"
        }
      ],
      "stateMutability": "view",
      "type": "function"
    },
    {
      "inputs": [],
      "name": "bid",
      "outputs": [],
      "stateMutability": "payable",
      "type": "function"
    },
    {
      "inputs": [],
      "name": "candleEndTime",
      "outputs": [
        {
          "internalType": "uint256",
          "name": "",
          "type": "uint256"
        }
      ],
      "stateMutability": "view",
      "type": "function"
    },
    {
      "inputs": [],
      "name": "ended",
      "outputs": [
        {
          "internalType": "bool",
          "name": "",
          "type": "bool"
        }
      ],
      "stateMutability": "view",
      "type": "function"
    },
    {
      "inputs": [],
      "name": "highestBid",
      "outputs": [
        {
          "internalType": "uint256",
          "name": "",
          "type": "uint256"
        }
      ],
      "stateMutability": "view",
      "type": "function"
    },
    {
      "inputs": [],
      "name": "highestBidder",
      "outputs": [
        {
          "internalType": "address",
          "name": "",
          "type": "address"
        }
      ],
      "stateMutability": "view",
      "type": "function"
    },
    {
      "inputs": [],
      "name": "minBiddingTime",
      "outputs": [
        {
          "internalType": "uint256",
          "name": "",
          "type": "uint256"
        }
      ],
      "stateMutability": "view",
      "type": "function"
    },
    {
      "inputs": [],
      "name": "withdraw",
      "outputs": [
        {
          "internalType": "bool",
          "name": "",
          "type": "bool"
        }
      ],
      "stateMutability": "nonpayable",
      "type": "function"
    }
  ],
  "bytecode": "0x60806040523480156200001157600080fd5b5060405162000faf38038062000faf833981810160405281019062000037919062000156565b806000806101000a81548173ffffffffffffffffffffffffffffffffffffffff021916908373ffffffffffffffffffffffffffffffffffffffff1602179055508242620000859190620001e1565b6001819055508260038190555081600154620000a29190620001e1565b6002819055505050506200021c565b600080fd5b6000819050919050565b620000cb81620000b6565b8114620000d757600080fd5b50565b600081519050620000eb81620000c0565b92915050565b600073ffffffffffffffffffffffffffffffffffffffff82169050919050565b60006200011e82620000f1565b9050919050565b620001308162000111565b81146200013c57600080fd5b50565b600081519050620001508162000125565b92915050565b600080600060608486031215620001725762000171620000b1565b5b60006200018286828701620000da565b93505060206200019586828701620000da565b9250506040620001a8868287016200013f565b9150509250925092565b7f4e487b7100000000000000000000000000000000000000000000000000000000600052601160045260246000fd5b6000620001ee82620000b6565b9150620001fb83620000b6565b9250828201905080821115620002165762000215620001b2565b5b92915050565b610d83806200022c6000396000f3fe6080604052600436106100915760003560e01c80633ccfd60b116100595780633ccfd60b146101385780634b449cba1461016357806391f901571461018e578063be30f45e146101b9578063d57bde79146101e457610091565b806312fa6feb1461009657806315466e38146100c15780631998aeef146100ec5780632a24f46c146100f657806338af3eed1461010d575b600080fd5b3480156100a257600080fd5b506100ab61020f565b6040516100b89190610851565b60405180910390f35b3480156100cd57600080fd5b506100d6610222565b6040516100e39190610885565b60405180910390f35b6100f4610228565b005b34801561010257600080fd5b5061010b6103ee565b005b34801561011957600080fd5b506101226105e2565b60405161012f91906108e1565b60405180910390f35b34801561014457600080fd5b5061014d610606565b60405161015a9190610851565b60405180910390f35b34801561016f57600080fd5b5061017861079d565b6040516101859190610885565b60405180910390f35b34801561019a57600080fd5b506101a36107a3565b6040516101b0919061091d565b60405180910390f35b3480156101c557600080fd5b506101ce6107c9565b6040516101db9190610885565b60405180910390f35b3480156101f057600080fd5b506101f96107cf565b6040516102069190610885565b60405180910390f35b600460009054906101000a900460ff1681565b60035481565b60015442111561026d576040517f08c379a000000000000000000000000000000000000000000000000000000000815260040161026490610995565b60405180910390fd5b60055434116102b1576040517f08c379a00000000000000000000000000000000000000000000000000000000081526004016102a890610a01565b60405180910390fd5b6000600554146103365760055460066000600460019054906101000a900473ffffffffffffffffffffffffffffffffffffffff1673ffffffffffffffffffffffffffffffffffffffff1673ffffffffffffffffffffffffffffffffffffffff168152602001908152602001600020600082825461032e9190610a50565b925050819055505b33600460016101000a81548173ffffffffffffffffffffffffffffffffffffffff021916908373ffffffffffffffffffffffffffffffffffffffff160217905550346005819055503373ffffffffffffffffffffffffffffffffffffffff167ff4757a49b326036464bec6fe419a4ae38c8a02ce3e68bf0809674f6aab8ad300346040516103c49190610885565b60405180910390a2600154421180156103de575060025442105b156103ec576103eb6107d5565b5b565b600254421015610433576040517f08c379a000000000000000000000000000000000000000000000000000000000815260040161042a90610ad0565b60405180910390fd5b600460009054906101000a900460ff1615610483576040517f08c379a000000000000000000000000000000000000000000000000000000000815260040161047a90610b3c565b60405180910390fd5b6001600460006101000a81548160ff021916908315150217905550600460019054906101000a900473ffffffffffffffffffffffffffffffffffffffff1673ffffffffffffffffffffffffffffffffffffffff167fdaec4582d5d9595688c8c98545fdd1c696d41c6aeaeb636737e84ed2f5c00eda6005546040516105089190610885565b60405180910390a260008060009054906101000a900473ffffffffffffffffffffffffffffffffffffffff1673ffffffffffffffffffffffffffffffffffffffff1660055460405161055990610b8d565b60006040518083038185875af1925050503d8060008114610596576040519150601f19603f3d011682016040523d82523d6000602084013e61059b565b606091505b50509050806105df576040517f08c379a00000000000000000000000000000000000000000000000000000000081526004016105d690610c14565b60405180910390fd5b50565b60008054906101000a900473ffffffffffffffffffffffffffffffffffffffff1681565b600080600660003373ffffffffffffffffffffffffffffffffffffffff1673ffffffffffffffffffffffffffffffffffffffff1681526020019081526020016000205490506000811161068e576040517f08c379a000000000000000000000000000000000000000000000000000000000815260040161068590610c80565b60405180910390fd5b6000600660003373ffffffffffffffffffffffffffffffffffffffff1673ffffffffffffffffffffffffffffffffffffffff1681526020019081526020016000208190555060003373ffffffffffffffffffffffffffffffffffffffff16826040516106f990610b8d565b60006040518083038185875af1925050503d8060008114610736576040519150601f19603f3d011682016040523d82523d6000602084013e61073b565b606091505b50509050806107935781600660003373ffffffffffffffffffffffffffffffffffffffff1673ffffffffffffffffffffffffffffffffffffffff1681526020019081526020016000208190555060009250505061079a565b6001925050505b90565b60015481565b600460019054906101000a900473ffffffffffffffffffffffffffffffffffffffff1681565b60025481565b60055481565b60006107df610803565b9050600354816107ef9190610ccf565b426107fa9190610a50565b60018190555050565b60004442604051602001610818929190610d21565b6040516020818303038152906040528051906020012060001c905090565b60008115159050919050565b61084b81610836565b82525050565b60006020820190506108666000830184610842565b92915050565b6000819050919050565b61087f8161086c565b82525050565b600060208201905061089a6000830184610876565b92915050565b600073ffffffffffffffffffffffffffffffffffffffff82169050919050565b60006108cb826108a0565b9050919050565b6108db816108c0565b82525050565b60006020820190506108f660008301846108d2565b92915050565b6000610907826108a0565b9050919050565b610917816108fc565b82525050565b6000602082019050610932600083018461090e565b92915050565b600082825260208201905092915050565b7f41756374696f6e20616c726561647920656e6465642e00000000000000000000600082015250565b600061097f601683610938565b915061098a82610949565b602082019050919050565b600060208201905081810360008301526109ae81610972565b9050919050565b7f546865726520616c7265616479206973206120686967686572206269642e0000600082015250565b60006109eb601e83610938565b91506109f6826109b5565b602082019050919050565b60006020820190508181036000830152610a1a816109de565b9050919050565b7f4e487b7100000000000000000000000000000000000000000000000000000000600052601160045260246000fd5b6000610a5b8261086c565b9150610a668361086c565b9250828201905080821115610a7e57610a7d610a21565b5b92915050565b7f41756374696f6e206e6f742079657420656e6465642e00000000000000000000600082015250565b6000610aba601683610938565b9150610ac582610a84565b602082019050919050565b60006020820190508181036000830152610ae981610aad565b9050919050565b7f41756374696f6e2068617320616c726561647920656e6465642e000000000000600082015250565b6000610b26601a83610938565b9150610b3182610af0565b602082019050919050565b60006020820190508181036000830152610b5581610b19565b9050919050565b600081905092915050565b50565b6000610b77600083610b5c565b9150610b8282610b67565b600082019050919050565b6000610b9882610b6a565b9150819050919050565b7f4661696c656420746f2073656e642066756e647320746f2062656e656669636960008201527f6172792e00000000000000000000000000000000000000000000000000000000602082015250565b6000610bfe602483610938565b9150610c0982610ba2565b604082019050919050565b60006020820190508181036000830152610c2d81610bf1565b9050919050565b7f4e6f2066756e647320746f2077697468647261772e0000000000000000000000600082015250565b6000610c6a601583610938565b9150610c7582610c34565b602082019050919050565b60006020820190508181036000830152610c9981610c5d565b9050919050565b7f4e487b7100000000000000000000000000000000000000000000000000000000600052601260045260246000fd5b6000610cda8261086c565b9150610ce58361086c565b925082610cf557610cf4610ca0565b5b828206905092915050565b6000819050919050565b610d1b610d168261086c565b610d00565b82525050565b6000610d2d8285610d0a565b602082019150610d3d8284610d0a565b602082019150819050939250505056fea26469706673582212204b658edc5d1f73dadb08d1e5b10394a92f76df9ad83bf7b46aaef3d303b4603e64736f6c63430008180033",
  "linkReferences": {},
  "deployedLinkReferences": {}
}